:020000041A00E0
:10000000008000100D37001A7901001A7B01001AD8
:100010007D01001A7F01001A8101001A8241FF53FD
:100020000000000000000000000000005152001A13
:100030008501001A00000000F152001A5553001A01
:100040002555001ABB01001ABB01001A0000000070
:10005000BB01001ABB01001ABB01001ABB01001A48
:10006000DD68001ABB01001ABB01001ABB01001AAF
:10007000BB01001ABB01001ABB01001ABB01001A28
:10008000BB01001ABB01001ABB01001ABB01001A18
:10009000BB01001ABB01001ABB01001ABB01001A08
:1000A000BB01001ABB01001ABB01001ABB01001AF8
:1000B000BB01001ABB01001ABB01001ABB01001AE8
:1000C000BB01001ABB01001ABB01001ABB01001AD8
:1000D000BB01001ABB01001ABB01001ABB01001AC8
:1000E000BB01001ABB01001ABB01001ABB01001AB8
:1000F00000000000BB01001ABB01001ABB01001A7E
:1001000000000000BB01001ABB01001ABB01001A6D
:10011000BB01001A188C001A00000010B400000087
:10012000188C001A0000081000000000188C001A3B
:100130000000002000000000188C001A0080002041
:1001400000000000188C001A00C000200000000011
:10015000B4000010444F0000000008100000000030
:1001600000000020000000000080002000000000CF
:1001700000C0002000000000FEE7FEE7FEE7FEE70B
:10018000FEE7FEE7FEE7FEE7FEE7002393420AD222
:1001900010B450F8044B41F8044B04339342F8D3A5
:1001A0005DF8044B7047704700238B4204D2002255
:1001B00040F8042B0433F8E77047FEE7FFFFFFFF2A
:1001C000FFFFFFFFFFFFFFFFFFFFFFFFFFFFFFFF3F
:1001D000FFFFFFFFFFFFFFFFFFFFFFFFFFFFFFFF2F
:1001E000FFFFFFFFFFFFFFFFFFFFFFFFFFFFFFFF1F
:1001F000FFFFFFFFFFFFFFFFFFFFFFFFFFFFFFFF0F
:10020000FFFFFFFFFFFFFFFFFFFFFFFFFFFFFFFFFE
:10021000FFFFFFFFFFFFFFFFFFFFFFFFFFFFFFFFEE
:10022000FFFFFFFFFFFFFFFFFFFFFFFFFFFFFFFFDE
:10023000FFFFFFFFFFFFFFFFFFFFFFFFFFFFFFFFCE
:10024000FFFFFFFFFFFFFFFFFFFFFFFFFFFFFFFFBE
:10025000FFFFFFFFFFFFFFFFFFFFFFFFFFFFFFFFAE
:10026000FFFFFFFFFFFFFFFFFFFFFFFFFFFFFFFF9E
:10027000FFFFFFFFFFFFFFFFFFFFFFFFFFFFFFFF8E
:10028000FFFFFFFFFFFFFFFFFFFFFFFFFFFFFFFF7E
:10029000FFFFFFFFFFFFFFFFFFFFFFFFFFFFFFFF6E
:1002A000FFFFFFFFFFFFFFFFFFFFFFFFFFFFFFFF5E
:1002B000FFFFFFFFFFFFFFFFFFFFFFFFFFFFFFFF4E
:1002C000FFFFFFFFFFFFFFFFFFFFFFFFFFFFFFFF3E
:1002D000FFFFFFFFFFFFFFFFFFFFFFFFFFFFFFFF2E
:1002E000FFFFFFFFFFFFFFFFFFFFFFFFFFFFFFFF1E
:1002F000FFFFFFFFFFFFFFFFFFFFFFFFFFFFFFFF0E
:1003000084B070B505AC84E80E0000EB40008200BC
:10031000B2F5804F51DA1346002A10DB9E101346C7
:10032000002A0EDB5B12A6EBC31603F5800303F570
:10033000006306EB4316B6000024254605E0D31CF7
:10034000ECE702F2FF13EDE70134032C0BDC294646
:100350001B4807F07FFB04AB23441B791D44022C90
:10036000F2DC2D02F0E72946154807F073FB7560B3
:100370000421144805F0FEFE0024254600E0013467
:10038000032C0CDC29460E4807F064FB231D04AA4D
:1003900013441B791D44022CF1DC2D02EFE72946A2
:1003A000074807F057FB35600421064805F0E2FED8
:1003B0000020BDE8704004B070474FF0FF30F8E710
:1003C000C87F001A00E00040B0F5804F15D282B01F
:1003D000420AD301C3EB900302F5800202F50062EA
:1003E00003EB42139B001B68019300F0030002AB78
:1003F000184410F8040C02B070474FF0FF307047FB
:1004000070B505460E4608240AE005EB4503980042
:1004100020440138FFF7D8FFC4F10803F054013C31
:10042000002CF2DC70BDFFFF10B5034C204605F038
:1004300095FE0123E36010BD00E000402DE9F0418E
:10044000C6B2184C06F5006754F827305FFA81F8F9
:10045000012505FA08F52B4344F8273006F5086313
:1004600044F823504FF47A7002F042F906F50A631B
:1004700044F823504FF4F07002F03AF954F8273062
:1004800023EA050544F82750282002F031F904EB4F
:10049000461414F8083013B90020BDE8F0814FF07D
:1004A000FF30FAE700400F402DE9F04782B00446E4
:1004B0000D46914601278DF80770DEB2404A06F5D9
:1004C000006152F821309DF8288007FA08F73B4375
:1004D00042F8213012E000213A4B186802F056F938
:1004E0009DF80730DBB2802B12D09DF807305B00FF
:1004F000DBB28DF807309DF807304BB19DF807301F
:100500002342E8D001212F4B186802F03FF9E7E7BA
:1005100000238DF8073042E0372002F0E9F89DF81B
:1005200006300133DBB28DF806309DF80630DBB2C1
:10053000072B2ED8224C06F5006A54F82A303B438C
:1005400044F82A30012303FA08F306F50A6244F856
:100550002230032002F0CCF854F82A3023EA0703B3
:1005600044F82A300C2002F0C3F89DF80730DBB2C3
:10057000EA5C5208EA5404EB461414F80830002BE5
:10058000CAD09DF80730DBB2EA5C42F08002EA5440
:10059000C2E79DF807300133DBB28DF807309DF8D4
:1005A0000730DBB24B4507D29DF80730DBB20022A3
:1005B000EA548DF80620B8E702B0BDE8F08700BF26
:1005C00000400F40284C001030B400220FE06408B7
:1005D000013BDBB253B182EA040111F0010F4FEA93
:1005E0005202F4D082F08C02D2B2F0E729464B1EC0
:1005F000DDB219B110F8014B0823EBE7104630BC0F
:100600007047FFFF2DE9F843044690F80E90B9F1CA
:10061000000F0AD04FF0000984F80C9084F80E9077
:1006200084F80D904846BDE8F8830D46816840681F
:10063000FFF704FF20B100232373A3736373F1E773
:10064000642002F055F8012707EA0501204602F070
:100650009DF8802F07D07F0017F0FF07F4D1B9462F
:100660000125A84634E04F460125A84630E0012880
:100670003AD1B8F1400FCDD984F80C90B9F1000F00
:1006800001D10123A373E37B002BC3D04FF00109F9
:10069000C8E7267B46450DD9E319DB7B2B4214BF07
:1006A0000126002616BBB8F1080F08D884F80D8083
:1006B000C1461BE0464514BF00260126F2E7C146AD
:1006C00014E0E219D37B2B43D37316E0072FD0D865
:1006D000124807F059FA204602F020F80646204654
:1006E00002F01CF8012EC2D08642D2D0012EE8D0F2
:1006F000E219D37B23EA0503D3733146204602F087
:1007000045F808F101085FFA88F86D0015F0FF055B
:10071000DCD10137FFB20125D8E700BFD47F001A32
:1007200070B506460D46082206E005F00101304688
:1007300002F02CF86D082246531EDCB2002AF4D1D8
:1007400070BDFFFF70B586B005460C464FF0FF3315
:10075000059300238DF81330FFF770FE08B106B043
:1007600070BD4FF4C87001F0C3FF02F073F8CC21E4
:10077000114B1868FFF7D4FF00942B46002202A902
:100780004420FFF791FE02F069F8E8B20B4D00F546
:10079000006655F82630E1B201228A4023EA0203BE
:1007A00045F82630420102F1402202F57022525CE7
:1007B000002AF7D0D3E700BF284C001000400F40BC
:1007C000F0B587B006460F4615464FF0FF33059348
:1007D00000238DF81330FFF731FE10B1059807B0F4
:1007E000F0BD044639463046FFF728FE4FF4C87086
:1007F00001F07EFF02F02EF855211C4B1868FFF720
:100800008FFF0AE005EB85039A00194B1344195D2D
:10081000164B1868FFF784FF0134072CF2DD0097B0
:100820003346092202A9BE20FFF73EFE02F016F869
:1008300008210DEB0100FFF7C7FE8DF813009DF8AE
:1008400010209DF81330DBB29A42C7D19DF80930D1
:100850000593059B1B0205939DF80830059A1343E9
:100860000593059B1B110593B8E700BF284C0010AA
:100870009C4D001010B5002405E00321074B1857CC
:1008800005F0E2FE0134032CF7DD002303E0044A07
:100890000021D1540133032BF9DD10BD00000010FD
:1008A000304C001010B5002420E01F4B185705F005
:1008B000D6FFD0B11D4B02221A5516E01A4B18571D
:1008C00005F0CDFF88B1194B01221A550DE0164BEA
:1008D000185705F0C4FF40B9144B03221A5504E021
:1008E000114B185705F0BBFF90B10134032C17DCF6
:1008F0000E4B1B5D032BF8D801A252F823F000BF6A
:10090000AB08001ACF08001ABD08001AE108001A47
:10091000064B00221A552146054807F09BF801E0D6
:100920004FF0FF34204610BD00000010304C001086
:10093000E47F001A014B00221A607047C4000010C7
:10094000014B01221A707047C800001008B5044B13
:1009500001221A704FF47A7004F006F8FAE700BF2B
:10096000C800001070B586B00023029303AB634A41
:1009700092E8030083E8030002F004FD38B1282068
:1009800005F0A1FF4FF4967003F0EEFFF7E7044681
:1009900002F0BEFD0021084606F0FEF8584806F0B9
:1009A00036F90121002006F0F7F8564806F02FF935
:1009B000302006F05FF8544806F029F9362006F09A
:1009C00059F802F014FE02F01DFE02F0B2FD02F032
:1009D0006CFD02F049FD224612E04C4B83FB0213F2
:1009E000A3EBE2735E1C910011448D00484828443B
:1009F000C66003EB43035900511A01310161013212
:100A0000172AEADD4FF0804002F002FD20B14FF0DE
:100A1000005002F0FDFC60B34FF0005002F0F8FC13
:100A2000002830D100250195012600962B46C822CA
:100A30003849394803F003FE019500962B46C82239
:100A40003649374803F0FBFD019500962B46C82236
:100A50003449354803F0F3FD019500962B46C82232
:100A60003249334803F0EBFD4FF4FA6003F07CFFAA
:100A70003BE00023019301220092C8222D492E4819
:100A800003F0DDFDCEE74FF0804002F0C1FC00280E
:100A9000C8D10023019301220092C8222749284887
:100AA00003F0CDFDBEE7274901260E703544EDB2B7
:100AB0000AE00133172B10DC03EB83029100144A88
:100AC0000A44127A022AEED012B91F4901260E708A
:100AD000002AEED00130C0B2EBE71C4B1D701C4B5E
:100AE00018704FF47A7003F03FFF0025154B1D700E
:100AF000154B1D7023462846DCE700BF4485001ACD
:100B00004C85001A5C85001A6885001AABAAAA2ACF
:100B10009C4D00108485001A911D001A9485001ABE
:100B2000E122001AA085001AFD0D001AB485001AF2
:100B3000990D001A6C85001A550B001A7885001A59
:100B40004D09001A884F0010954D00108E4D001071
:100B5000944D001030B589B013E0012002F062FC22
:100B600015E07F4807F010F804E04FF0007002F045
:100B70004FFC38B34FF0007002F04AFC002840F000
:100B800094804FF0805002F043FC0028E5D04FF0F5
:100B9000006002F03DFC0028E7D1724806F0F4FF47
:100BA0001F2001F0E1FC01466F4C20606F4806F009
:100BB00051FF2368002BD4D001214FF0006002F0D8
:100BC00017FCD7E7F021684B1868FFF71BFD44E0DE
:100BD00000250DB3664A136801331360644B18682F
:100BE000172833DC6946FFF70BFC624B00221A60C2
:100BF000604B1B68072BEBDC5F4A12681A44D17B01
:100C000008AA1A4412F8202C914203D10133594A00
:100C10001360EDE70125DCE7554B186800EB800316
:100C20009A00564B134401221A722B460AE008AA76
:100C30001A4412F8204C00EB800291004F4A0A44FB
:100C4000D4540133072BF2DD2C46C3E7012C0BD023
:100C5000F021454B1868FFF7D5FC00281CDD444BFC
:100C600000221A600124B9E7454806F08DFF0024F0
:100C70000CE0414D2B682344D97B424806F0EAFE44
:100C80002B682344DA7B404B1A550134072CF0DDE6
:100C90003E4806F079FFDBE701214FF0007002F0DB
:100CA000A7FB3B4B01221A7064E7324B00221A600B
:100CB0001EE003EB83029100304A0A4401211172C5
:100CC00003EB83039A002D4B13441B7A8DF81730E6
:100CD00000234FF47A7205A92E48006803F048F803
:100CE0004FF47A7003F040FE224A13680133136018
:100CF000204B1B68172B2CDC03EB83039A001F4B44
:100D000013441B7A002BEFD004F0B4FA164B1B6887
:100D1000184D2A6899685868FFF752FD2B68174CE0
:100D200003EB83039A002244507204F0C5FAFD23BA
:100D30008DF814302B688DF8153003EB83018A0091
:100D40001444627A8DF816201C2AB2D9022121722D
:100D5000B6E7054B1B6899685868FFF7F3FC10E786
:100D6000EC83001ACC83001ABC000010DC83001A4C
:100D7000B4000010B8000010284C00109C4D00106A
:100D80000084001A1484001A904F0010FC83001A8B
:100D9000C8000010984D001000B585B006E012485C
:100DA00006F058FE01A9114806F054FE4FF0FF323C
:100DB00069460F4B186803F003F9009B012BEED036
:100DC000022B09D0002BF1D10A4806F043FE01A9FD
:100DD000064806F03FFEE9E7074806F03BFE01A99A
:100DE000024806F037FEE1E72C85001A2485001A38
:100DF000904D00101885001A3885001A70B58CB017
:100E0000B64806F0C1FE18E0012003F0ADFDB4487D
:100E100006F0BAFE012005F025FB0028F4D00B22D5
:100E200003A9012005F0A4FB4FF0005002F0F0FAF6
:100E300060B9012005F00AFB60B9642203A9A94B3F
:100E4000186803F0BDF80128F3D1E3E7A64806F0DF
:100E50009BFEEEE70DF12F01012005F06DFB0A204E
:100E600006F010FE9DF82F30FE2B00F0C58036D81E
:100E7000FD2BE2D1012005F0E9FA0028DDD00DF1CB
:100E80002F01012005F058FB9DF82F40012005F0AF
:100E9000DDFA0028D1D00DF12F01012005F04CFB27
:100EA0009DF82F308DF82130012005F0CFFA002871
:100EB000C3D00DF12F01012005F03EFB9DF82F005E
:100EC0008DF820009DF82160884AA3001D19A90013
:100ED00011444E720872012005F0DAFAADE7844839
:100EE00006F0B8FD0DF12F01012005F025FB9DF85E
:100EF0002F30ED3B032BA0D8DFE803F077452C0221
:100F00007C4806F0A7FD0DF12F01012005F014FB30
:100F10009DF82F30012B03D0012005F0B9FA8CE7A2
:100F2000754806F097FD01214FF0805002F060FAFD
:100F3000FF238DF80030EF238DF8013001238DF869
:100F4000023000234FF47A7269466648006802F066
:100F50000FFFE1E7694806F07DFD0DF12F0101204B
:100F600005F0EAFA9DF82F30012B7FF466AF624856
:100F700006F070FD01214FF0805002F039FA5CE775
:100F8000012003F0F1FC012005F060FA0028F7D001
:100F90005B4806F05FFD0DF12F01012005F0CCFA52
:100FA000FE238DF80C309DF82F008DF80D008DF884
:100FB000160006A9FFF724FA00220BE00CAB9918E3
:100FC00011F8183C01F8223C9DF816100B448DF8DE
:100FD00016300132072AF1DD00234FF47A7203A99B
:100FE0004048006802F0C4FE27E7464806F0CCFD02
:100FF000454B4C221A7020E7444806F02BFD02E0D6
:10100000012003F0B1FC012005F020FA0028F7D000
:101010000DF12F01012005F08FFA9DF82F50294680
:101020003B4806F017FD9DF82F203A4B1A7006A991
:101030002846FFF7E5F900241CE00DF12F010120FF
:1010400005F07AFA9DF82F10334806F003FD9DF85D
:101050002F20324B03EBC5031A550CAB234413F876
:10106000183C9A4211D12B4A13789DF82F100B444B
:1010700013700134072C11DC012005F0E7F900287A
:10108000DBD1012003F070FCF6E700214FF40010E3
:1010900002F0AEF9E7E7012003F066FC012005F05D
:1010A000D5F90028F7D00DF12F01012005F044FA01
:1010B0009DF82F101A4806F0CDFC164C21781948DF
:1010C00006F0C8FC22789DF82F309A4203D01648CB
:1010D00006F05AFDB1E6154B1D60F8E71884001ABA
:1010E0003084001A984D00103C84001A9C4D00106A
:1010F0005084001A5C84001A6484001A7484001AF4
:101100008084001A9884001AC8000010AC84001A69
:10111000B884001A8C4D0010C484001AC84C00100A
:10112000DC84001AEC84001AFC84001A804F001042
:1011300010B582B000221021082002F0F1FD164BFC
:10114000186000221021084602F0EAFD134B1860D7
:10115000134B009300231A461249134803F086FEEE
:10116000124B1860124B009300231A4642F2107182
:10117000104803F07BFE104B1860002401940123FB
:1011800000932346C8220D490D4803F058FA03F096
:1011900089FA204602B010BD904D0010984D001005
:1011A0003509001AC02709008081001A844F0010F9
:1011B0004109001A9481001A884D0010AC81001A70
:1011C0006509001A70B506464FF0806002F020F9FC
:1011D00040BB1D2001F02AFA0146244B1860244828
:1011E00006F038FC214B1B6803B301214FF08060EF
:1011F00002F0FEF81D4B1B6899685868FFF71EF94E
:10120000C0B1F021194B1868FFF7FCF904460146FC
:10121000184806F01FFC012C10D0174806F0B4FC4B
:10122000304670BD154806F0AFFCDBE7144806F009
:10123000ABFCDFE7134806F0A7FCE2E7124806F034
:1012400009FC00240BE0094D2B682344D97B0F488F
:1012500006F000FC2B682344DB7B33550134072C5C
:10126000F1DD0B4806F090FCDAE700BFC00000108B
:10127000DC83001AF880001A0881001AD080001A56
:10128000EC83001AE480001A3886001A0481001AE0
:10129000FC83001A032845D8DFE800F00206101A84
:1012A000214B01221A707047204A1368013B1360DA
:1012B000002B37D1134601221A6070471B4A13686E
:1012C00001331360012B2DDD134602221A60704793
:1012D00030B583B0154B1B68012B03D0022B12D005
:1012E00003B030BD0124124B1C60124B1D6803F08B
:1012F0002BFA0023009302462146284603F0D2FD34
:10130000094B1C70ECE70C4B1C6803F01DFA002322
:10131000009302460121204603F0C4FD024B1F2228
:101320001A70DDE7704700BFC8000010C44C001001
:10133000C4000010844F0010884D0010032802D80C
:10134000014B01221A707047C8000010032836D8DC
:10135000DFE800F0320212291A4A1368013B1360D9
:10136000194A1268934202DA013A17490A6033BBFC
:10137000144B01221A6022E0124A136801331360F1
:10138000114A1268D11C8B4202DD01320E4B1A60E9
:101390000D4B1B68032B12DD0B4B03221A60094B0C
:1013A00006221A600BE010B5064B1C682146074860
:1013B00006F050FB204610BD054B01221A70204656
:1013C000704700BFC44C0010C04C00103882001A97
:1013D000C800001010B5032840D8DFE800F0020D67
:1013E0001F38244B01221A704FF0FF342146224847
:1013F00006F030FB204610BD204A1368013B136005
:101400001F4A1268934202DA013A1D490A605BBB27
:101410001A4B01221A604FF0FF34E7E7174A1368AE
:1014200001331360164A1268D11C8B4202DD01326F
:10143000134B1A60124B1B68032B18DD104B032251
:101440001A600E4B06221A604FF0FF34CEE70B4BAA
:101450001C6821460B4806F0FDFAC7E70A4806F06B
:1014600093FB4FF0FF34C1E74FF0FF34BEE74FF07E
:10147000FF34BBE7C80000100483001AC44C0010FE
:10148000C04C0010DC82001AF882001A10B582B03D
:10149000032854D8DFE800F00207182F2A4B012256
:1014A0001A7002B010BD294A1368013B1360284A24
:1014B0001268934202DA013A25490A60002BF0D102
:1014C000224B01221A60ECE7204A136801331360B3
:1014D0001F4A1268D11C8B4202DD01321C4B1A607C
:1014E0001B4B1B68022BDCDD194B02221A60174BC9
:1014F00005221A60D5E7154B1B68013B032BD0D89A
:10150000DFE803F002111519124B1C6803F01CF9F7
:101510000023009302460121204603F0C3FC0A4B3E
:1015200051221A70BDE7084B52221A70B9E7064BD8
:1015300053221A70B5E7044B54221A70B1E70648DB
:1015400006F022FBADE700BFC8000010C44C00103D
:10155000C04C0010884D0010F882001A08B505F044
:1015600043FB0021084605F017FB094805F04FFB37
:101570000221002005F010FB064805F048FB03217E
:10158000002005F009FB044805F041FB08BD00BF41
:101590009080001AA480001AB880001A08B505F0DF
:1015A00023FB0021084605F0F7FA0C4805F02FFB55
:1015B0000121002005F0F0FA094805F028FB02217E
:1015C000002005F0E9FA074805F021FB032100207F
:1015D00005F0E2FA044805F01AFB08BD3C80001A49
:1015E0005480001A6C80001A8080001A30B4154BA9
:1015F000154A1068186092889A80144A03CA586184
:101600009961134A03CA9862D962127883F830202C
:10161000104A1068D863104C07CC186559659A6554
:101620002288A3F85C200D4A1288A3F86420A3F84E
:1016300078200B4B00221A600A4B01221A6030BC42
:10164000704700BF344C00105082001A5882001AB4
:101650006082001A6C82001A7082001AE07F001A01
:10166000C04C0010C44C001010B4144B144A03CAF0
:101670001860596012781A72124A03CA5861996147
:1016800012889A83104A03CA9862D96211889278A4
:10169000198683F832200D4A12889A87A3F85020C1
:1016A000A3F86420A3F87820094B00221A60094BA4
:1016B00001221A605DF8044B704700BF344C0010E3
:1016C000B481001AC081001ACC81001AE07F001A90
:1016D000C04C0010C44C001010B4164B164A03CA7C
:1016E0001860596012881A81144A03CA58619961B6
:1016F00012889A83124A10689862127983F82C2013
:10170000104A03CAD8631964127883F8442003F19D
:1017100050040D4A03CA18655965118893782181D0
:10172000A3720A4B00221A60094B01221A605DF86D
:10173000044B7047344C00108883001A9483001ABD
:10174000A083001AA883001ACC81001AC04C001094
:10175000C44C001030B4184B184A10681860127945
:101760001A71174C07CC58619961DA61227883F8B5
:101770002020144A1068986290889279988583F89E
:101780002E20114A03CAD863196411889278A3F8ED
:10179000441083F846200D4A1288A3F85020A3F87D
:1017A0006420A3F878200A4B00221A60094B01221A
:1017B0001A6030BC704700BF344C00101C83001A04
:1017C0002483001A3483001A3C83001AE07F001A35
:1017D000C04C0010C44C001070B41A4C1A4B07CB0C
:1017E00020606160A2601A889B78A281A373174B66
:1017F00007CB6061A161E261154B07CBA062E1629A
:1018000022631B7884F83430124B07CBE0632164E9
:1018100062641B88A4F848300F4D0FCD20656165C8
:10182000A265E365286820660C4B1B88A4F8643029
:10183000A4F878300A4B00221A600A4B01221A6081
:1018400070BC7047344C00108082001A9082001ADD
:101850009C82001AAC82001ABC82001AE07F001A37
:10186000C04C0010C44C001008B5032806D8DFE8AF
:1018700000F00206172E264B01221A7008BD254AD9
:101880001368013B1360244A1268934202DA013A5A
:1018900021490A60002BF1D11E4B01221A60EDE7AD
:1018A0001C4A1368013313601B4A1268D11C8B4217
:1018B00002DD0132184B1A60174B1B68012BDDDD6E
:1018C000154B01221A60134B04221A60D6E7114B04
:1018D0001B68013B032BD1D8DFE803F002080E148C
:1018E000FFF7C2FE0A4B1E221A70C7E7FFF7F4FE8D
:1018F000074B28221A70C1E7FFF72CFF044B3C224C
:101900001A70BBE7FFF768FF014B50221A70B5E76A
:10191000C8000010C44C0010C04C001010B4134B91
:10192000134C07CC186059609A6022781A73114AD8
:1019300012889A82104A12881A85104A12889A8749
:101940000F4A1288A3F850200E4A1288A3F8642088
:101950000D4A1288A3F878200C4B00221A600C4B19
:1019600001221A605DF8044B704700BF344C001030
:101970001082001A2082001A2482001A2882001A7B
:101980002C82001A3082001A3482001AC04C0010D7
:10199000C44C0010114B124A03CA186059601288D7
:1019A0001A81104A12889A820F4A12881A850F4AA1
:1019B00012889A870E4A1288A3F850200D4A12887E
:1019C000A3F864200C4A1288A3F878200B4B00225D
:1019D0001A600B4B01221A60704700BF344C001094
:1019E000D082001A2082001A2482001A2882001A4B
:1019F0002C82001A3082001A3482001AC04C001067
:101A0000C44C001038B505460C4605F0EDF81548F5
:101A100006F0BAF80021084605F0BEF8124805F0B5
:101A2000F6F805F13000C0B205F024F801210020DD
:101A300005F0B2F80D4805F0EAF804F13000C0B244
:101A400005F018F80221052005F0A6F8084805F071
:101A5000DEF80321002005F09FF8064805F0D7F8CE
:101A600038BD00BFD881001AE881001AF881001A39
:101A70000482001AB880001A10B4134B134C07CC20
:101A8000186059609A6022781A73114A03CA586123
:101A9000996112889A830F4A03CA9862D9621288A0
:101AA0001A860D4A12889A87A3F85020A3F864205A
:101AB000A3F87820094B00221A60094B01221A6012
:101AC0005DF8044B704700BF344C00104883001A87
:101AD0005883001A6483001AE07F001AC04C00107B
:101AE000C44C001008B501211B2004F0ADFD0121FC
:101AF0001C2004F0A9FD08BD30B587B0104806F0E1
:101B000043F8002512E006AB234413F8141C0D48DB
:101B100005F0A0FF0134072CF5DD0B4806F034F882
:101B20004FF47A70002104F043FF0135182D05DCD5
:101B300001A92846FEF764FC0024ECE707B030BD9D
:101B4000B483001AC483001AFC83001A30B58BB02A
:101B50003C4B00221A603C4B4A221A70012803D0E9
:101B6000022813D00BB030BD384806F00DF8FF2323
:101B70008DF80830ED238DF8093000234FF47A7288
:101B800002A93348006802F0F3F8EBE74FF4800055
:101B900001F03EFC30B14FF4001001F039FC38B9CF
:101BA00000243EE02B4805F0EFFF01F0ADFAD9E745
:101BB000294805F0E9FF01F0B3FAD3E7274A02EB21
:101BC000C402D15C0AAA1A4402F8141C0133072B80
:101BD000F4DD0AAB13E903008DE8030005AD95E8D9
:101BE0000E002046FEF78CFB29462046FEF708FC37
:101BF0000023012000E00133072B0BDC0AAA1A4462
:101C000012F8141C154A02EBC402D25C9142F2D0C5
:101C10000020F0E748B9013C4FF4FA7002F0A4FE4E
:101C20000134172C06DC0023D1E7064B1C6001F0C1
:101C30001BFAF1E70A4805F0A7FF034B01221A70CF
:101C400090E700BF804F0010C80000102081001AEC
:101C5000984D00103C81001A5881001AC84C0010A1
:101C60007081001A032846D8DFE800F04102131DF6
:101C7000214A1368013B1360204A1268934202DA3A
:101C8000013A1E490A60002B35D11B4B01221A6014
:101C90007047194A136801331360022B2BDD13467A
:101CA00002221A60704710B582B0134B1C6821469F
:101CB000134805F0CFFE012C11D0022C13D0114B8C
:101CC00001221A70104B1C6802F03EFD00230093A5
:101CD00002460121204603F0E5F802B010BD0120C4
:101CE000FFF734FFEEE70220FFF730FFEAE7054B8E
:101CF00001221A7070477047C44C0010C04C00108D
:101D00007083001AC8000010884D001038B51C4BB5
:101D10004FF0FF321A6001214FF4001001F068FB10
:101D200000214FF4800001F063FB002402E001F089
:101D30009BF90134172C10DCE0B201F0CDFB4FF41D
:101D40007A7002F011FE0E4D29680E4805F082FEF1
:101D50002B68A342EBD0013CEBE701214FF480005C
:101D600001F046FB4FF4001001F052FB18B1064899
:101D700005F00AFF38BD054805F006FFFAE700BF89
:101D8000804F0010FC7F001A0C80001A2480001A7B
:101D900070B518E001210D2004F0FEFE322004F0A1
:101DA00069FE01210E2004F0F7FE7F2004F062FEA0
:101DB00001210F2004F0F0FE312004F05BFE4FF40F
:101DC0007A7002F0D1FDD84B1B785B2BF7D801A2BB
:101DD00052F823F0951D001A2920001A2D20001A10
:101DE000BF1D001ABF1D001ABF1D001ABF1D001A1B
:101DF000BF1D001ABF1D001ABF1D001ABF1D001A0B
:101E0000BF1D001ABF1D001ABF1D001ABF1D001AFA
:101E1000BF1D001ABF1D001ABF1D001ABF1D001AEA
:101E2000BF1D001ABF1D001ABF1D001ABF1D001ADA
:101E3000BF1D001ABF1D001ABF1D001ABF1D001ACA
:101E4000BF1D001ABF1D001ABF1D001A3720001A3F
:101E50004120001ABF1D001ABF1D001ABF1D001A25
:101E6000BF1D001ABF1D001ABF1D001ABF1D001A9A
:101E7000BF1D001A4B20001ABF1D001ABF1D001AFB
:101E80005520001A5F20001ABF1D001ABF1D001A3E
:101E9000BF1D001ABF1D001ABF1D001ABF1D001A6A
:101EA000BF1D001ABF1D001A6920001A7320001AF6
:101EB0007320001A7D20001A8320001ABF1D001A0B
:101EC000BF1D001A8D20001ABF1D001ABF1D001A69
:101ED000BF1D001ABF1D001ABF1D001ABF1D001A2A
:101EE000BF1D001ABF1D001ABF1D001ABF1D001A1A
:101EF0009720001AA720001AD720001ADD20001A08
:101F0000BF1D001AE920001ABF1D001ABF1D001ACC
:101F1000BF1D001A0321001A0921001A0F21001AFF
:101F20001B21001A3521001ABF1D001ABF1D001AFF
:101F3000BF1D001ABF1D001ABF1D001ABF1D001AC9
:101F40004121001A01211B2004F054FC03E001216F
:101F50001C2004F04FFC962002F006FD04EB8403E5
:101F60009A00724B13441B7A012B27D104EB840394
:101F70009A006E4B13441B7A022B2AD0962002F053
:101F8000F3FC0136052E2CDCA30023449A00674D98
:101F900015442B6980211941C9B2287B01F0E7FA69
:101FA0002B7A022BCED0002BD1D101211C2004F0A2
:101FB00021FC01211B2004F01DFCCCE701F017FBE4
:101FC00000211C2004F016FC00211B2004F012FC50
:101FD000CCE7574B1B68002BD0D11E2004F073FCBC
:101FE000CCE7514B1B78012B7FF4E9AE0134172C61
:101FF0003FF7E5AE2A2004F066FC04F0F5FD03F09F
:1020000039F9A30023449A0048481044037A027C1B
:10201000017B407A00F072FD03F04EF900F0D6FD2E
:1020200001F0E5FA0026ADE70024E0E701F0DFFA71
:1020300000F0A4FEC3E601F0DAFA00F09FFEBEE66F
:1020400001F0D5FA00F006FFB9E601F0D0FA00F091
:1020500095FEB4E601F0CBFAFFF780FAAFE601F0A7
:10206000C6FAFFF79BFAAAE601F0C1FA00F04CFFAE
:10207000A5E601F0BCFA00F081FEA0E601F0B7FA97
:102080009DE601F0B4FA00F067FF98E601F0AFFAC0
:1020900000F074FE93E601F0AAFA00F0B7FF224BBD
:1020A00048221A708BE64FF4800001F0B1F9002845
:1020B000F9D04FF4001001F0ABF948B100F0BCFFCB
:1020C0004FF47A6002F050FC174B01221A7076E64A
:1020D00000F0BEFFF4E700F051FE70E600F0FEFFF6
:1020E000114B4B221A706AE600F090FFFFF70EFECC
:1020F00000F0F4FF0220FFF729FD0B4B01221A70BC
:102100005DE600F03BFE5AE601F024F857E601F0E8
:1021100079FA054B01221A7051E601F0F9F9024BE8
:1021200001221A704BE600BFC80000109C4D001041
:10213000C400001001F0FDF9064B01221A703EE6C2
:1021400000F0FAFF4FF4FA6002F00EFC014B01229E
:102150001A7034E6C800001008B503283AD8DFE842
:1021600000F03602121C1C4A1368013B13601B4A24
:102170001268934202DA013A18490A6053BB164BBF
:1021800001221A6026E0144A136801331360022BFF
:1021900020DD134603221A601CE00F4B1B68022B44
:1021A00009D0032B0DD0012B14D10D4B47221A70EF
:1021B000FFF7ACFD0EE0FFF75FFC094B49221A70F8
:1021C00008E0FFF799FC064B01221A7002E0044B6D
:1021D00001221A7008BD00BFC44C0010C04C001092
:1021E000C800001008B500214FF0007001F000F9A0
:1021F00008BDFFFF032868D8DFE800F00206172EAD
:10220000324B01221A707047314A1368013B136048
:10221000304A1268934202DA013A2E490A60002BD2
:1022200053D12B4B01221A607047294A136801339E
:102230001360284A1268D11C8B4202DD0132254B03
:102240001A60244B1B68012B3FDD224B01221A60D0
:102250001F4B04221A60704710B582B01C4B1B68DC
:10226000013B032B05D8DFE803F002060A21FFF744
:10227000B9FF02B010BD154B35221A70F9E7164BA5
:102280001B78282B03D1114B2B221A70F1E70F4B2F
:102290002C221A70114B1C6802F056FA002300938E
:1022A00002460121204602F0FDFDE2E70B4B1C68CF
:1022B00002F04AFA0023009302460121204602F070
:1022C000F1FD024B39221A70D3E77047C8000010A5
:1022D000C44C0010C04C0010904F0010884D0010EE
:1022E00070B588B04FF4FA6002F03EFB0BE038B9ED
:1022F0009B4B02221A70FFF779F901E0FFF7B4FA5D
:10230000282002F031FBFEF7CDFA0446B0F1FF3F82
:10231000F6D0934B1B78013B4F2BF1D801A252F81A
:1023200023F000BFEF22001AFD22001A0123001A39
:102330000123001A0123001A0123001A0123001AA5
:102340000123001A0123001A0123001A0123001A95
:102350000123001A0123001A0123001A0123001A85
:102360000123001A0123001A0123001A0123001A75
:102370000123001A0123001A0123001A0123001A65
:102380000123001A0123001A0123001A0123001A55
:102390000123001A0123001A6524001A6B24001A75
:1023A0000123001A0123001A0123001A0123001A35
:1023B0000123001A0123001A0123001A0123001A25
:1023C0007124001A0123001A0123001A7724001A2D
:1023D000A124001A0123001A0123001A0123001A64
:1023E0000123001A0123001A0123001A0123001AF5
:1023F0000123001AAF24001AD324001AEB24001A78
:102400000925001A4925001A0123001A0123001A80
:102410004F25001A0123001A0123001A0123001A74
:102420000123001A0123001A0123001A0123001AB4
:102430000123001A0123001A0123001A0123001AA4
:102440000123001A5525001A0123001A0123001A3E
:102450000123001A0123001A0123001A0123001A84
:102460005B25001AFEF716FF4AE7FEF767FF47E70E
:10247000FFF7C0FE44E7032806D0002C7FF440AFEE
:10248000374B01221A703BE7354B36221A7003ADE9
:10249000344E0FCE0FC533682B60FFF73FFAECE7E1
:1024A00000287FF42DAF2E4B01221A7028E7032855
:1024B00006D0002C7FF424AF294B02221A701FE7AC
:1024C000274B36221A7003A8FEF77CFEFFF726FA88
:1024D000EFE7FEF73BFF0690032C7FF411AF204B94
:1024E00037221A70FFF756FA0AE7FEF773FF0790D4
:1024F000B0F1FF3F3FF404AF194B38221A70014688
:102500000698FFF77FFAFBE6032806D0002C7FF43D
:10251000F7AE134B01221A70F2E6069B013B03EB68
:1025200043035A00079D154408AB13E903008DE8E7
:10253000030003AB0ECB681EFDF7E2FE0028E5D1D9
:10254000074B01221A70E1E7FEF7F8FED8E6FFF725
:1025500003FED5E6FFF786FBD2E6FEF797FFCFE650
:10256000C8000010904F0010294B1A68294B1A60C0
:10257000294B18701038102846D8DFE800F0344591
:1025800045454545454545454545453F453909008E
:10259000214B03225A6000229A6010B41E4A11791E
:1025A000137A03EB41131D49902041F8230013795E
:1025B0001B4803F5006350F82310147A0122A2404F
:1025C00021EA020240F82320164A136843F0807380
:1025D0001360154A136843F0010313600C4B18682D
:1025E0005DF8044B70470C4B03225A609A60D4E7A5
:1025F000094B03225A6004229A60CEE7064B03225D
:102600005A6006229A60C8E70020014B18607047A4
:1026100004000010284C0010CC000010006008409E
:1026200000400F40FCED00E0001000E0294B1A686C
:10263000294B1A60294B18701038102846D8DFE84B
:1026400000F0344545454545454545454545453FEB
:1026500045390900214B03225A6000229A6010B4C8
:102660001E4A1179137A03EB41131D49902041F85A
:10267000230013791B4803F5006350F82310147AE4
:102680000122A24021EA020240F82320164A1368E0
:1026900043F080731360154A136843F0010313601D
:1026A0000C4B18685DF8044B70470C4B03225A60C2
:1026B0009A60D4E7094B03225A6004229A60CEE75D
:1026C000064B03225A6006229A60C8E70020014B9D
:1026D00018607047080000102C4C0010E400001037
:1026E0000060084000400F40FCED00E0001000E0FA
:1026F000074B00221A60074B1B68074AA2FB032303
:102700009B0C00FB03F0024B1B688342FBD370471A
:10271000041000E0E44F001083DE1B4370B5054653
:102720000379194C03F5006354F82320017A01263C
:1027300006FA01F10A4344F823200379027A06FAE3
:1027400002F203F50A6344F823200320FFF7D0FFC9
:102750002B7903F5006354F82320297A8E4022EA6E
:10276000060644F823600C20FFF7C2FF2A792B7A73
:1027700004EB4214E35C2BB900243720FFF7B8FFC9
:10278000204670BD0124F8E700400F4070B50446B4
:1027900071B30379027A012606FA02F22C4D03F591
:1027A0000A6345F82320037903F5006355F82320D5
:1027B000017A06FA01F10A4345F823200320FFF7C6
:1027C00097FF2379227A06FA02F203F5086345F8A7
:1027D0002320237903F5006355F82320217A8E40C6
:1027E00022EA060645F823603C20FFF781FF70BD12
:1027F0000379027A012606FA02F2154D03F50A63FF
:1028000045F82320037903F5006355F82320017A66
:1028100006FA01F10A4345F823203C20FFF768FF40
:102820002379227A06FA02F203F5086345F8232099
:10283000237903F5006355F82320217A8E4022EA9C
:10284000060645F823600A20FFF752FFCFE700BFD6
:1028500000400F40012383F310887047002383F367
:102860001088704708B54FF4FA70002104F0A0F802
:10287000082305220421142004F014F91349002030
:1028800004F0D0F91249012004F0CCF911490220DA
:1028900004F0C8F91049032004F0C4F90F490420DA
:1028A00004F0C0F90E49052004F0BCF90D490620DA
:1028B00004F0B8F90C49072004F0B4F9002004F042
:1028C0009CF904F091F9002008BD00BFDC87001AD4
:1028D000E487001AD487001ADC85001AE485001A00
:1028E000D485001ACC85001AC485001A38B505466F
:1028F0000C46012903D0022906D0002038BD002152
:10290000012004F049F904E00021042004F044F916
:102910000424092DF2D8DFE805F0051C344B627A57
:1029200091A8C0D7002004F0A5F8012004F0A2F877
:10293000022004F09FF80121204604F02DF9032025
:1029400004F098F8042004F095F8052004F092F8BB
:10295000D4E7694D284604F05AF9002004F08AF8BB
:10296000284604F054F90121204604F015F92846C0
:1029700004F04DF9052004F07DF8284604F047F9ED
:10298000BCE7062004F076F8062004F073F8022075
:1029900004F070F80121204604F0FEF8032004F052
:1029A00069F8042004F066F8042004F063F8A5E751
:1029B000062004F05FF8062004F05CF8022004F022
:1029C00059F80121204604F0E7F8042004F052F8F9
:1029D000042004F04FF8052004F04CF88EE70320A3
:1029E00004F048F8042004F045F8072004F042F809
:1029F0000121204604F0D0F83F4C204604F007F9AE
:102A0000204604F004F9072004F034F876E70720A4
:102A100004F030F8062004F02DF8062004F02AF81F
:102A20000121204604F0B8F8042004F023F8042023
:102A300004F020F8052004F01DF85FE7002004F002
:102A400019F8062004F016F8062004F013F8012106
:102A5000204604F0A1F8032004F00CF8042004F050
:102A600009F8052004F006F848E7012004F002F810
:102A7000012003F0FFFF072003F0FCFF01212046A7
:102A800004F08AF81C4C204604F0C1F8204604F0FB
:102A9000BEF8052003F0EEFF30E7002003F0EAFF68
:102AA000062003F0E7FF022003F0E4FF01212046A7
:102AB00004F072F8032003F0DDFF042003F0DAFFD6
:102AC000052003F0D7FF19E7002003F0D3FF06200D
:102AD00003F0D0FF022003F0CDFF0121204604F0D7
:102AE0005BF8054C204604F092F8204604F08FF87D
:102AF000052003F0BFFF01E7E07F001A70B5044630
:102B00000E4615467D2800DD7D24A3B3642C47DCEA
:102B10002B4B83FB0423E017C0EBA30000EB8002E8
:102B20005300E31ADCB20121C0B2FFF7DFFE02213D
:102B30002046FFF7DBFE0021072004F02DF86F2070
:102B400003F098FF0221012004F026F81D4804F04C
:102B50005EF806F13000C0B203F08CFF03210120C3
:102B600004F01AF8184804F052F805F13000C0B229
:102B700003F080FF70BD0021012004F00DF8042057
:102B800003F078FF042003F075FF0021042004F017
:102B900003F8042003F06EFF042003F06BFFCAE784
:102BA0000021084603F0F8FF022003F063FF012133
:102BB000002003F0F1FF052003F05CFF643CA7E771
:102BC00067666666B087001AB887001A08B50021E4
:102BD000092003F0E1FF5A4804F019F84FF0804053
:102BE00000F016FC70BB4FF0005000F011FC002804
:102BF0003BD10121092003F0CFFF524804F007F830
:102C0000514B1B78002B43D1504B1B78002B43D0EA
:102C10004F4803F0FCFF0221092003F0BDFF4D489F
:102C200003F0F5FF4C4B1B781D2B39D8132B5ED8C6
:102C3000092B64D9312003F01DFF474A13780A3B62
:102C4000137034E0312003F015FF444803F0DFFF38
:102C50004FF0805000F0DCFB0028C4D07E2003F051
:102C600009FF3F4803F0D3FFBDE7322003F002FF26
:102C70003A4803F0CCFF4FF0805000F0C9FB002829
:102C8000B7D07F2003F0F6FE364803F0C0FFB0E770
:102C9000354803F0BCFFBEE7344803F0B8FFBAE79D
:102CA000332003F0E7FE2C4A13781E3B13702A4BA7
:102CB00018783030C0B203F0DDFE2D4803F0A7FFD6
:102CC0000321092003F068FF2A4803F0A0FF2A4BE4
:102CD0001B781D2B17D8132B26D8092B2CD9312064
:102CE00003F0C8FE244A13780A3B137012E0322026
:102CF00003F0C0FE184A1378143B1370D7E7174847
:102D000003F085FFD3E7332003F0B4FE1A4A1378AB
:102D10001E3B1370184B18783030C0B203F0AAFE77
:102D2000134803F074FF08BD322003F0A3FE124ADB
:102D30001378143B1370EDE7084803F068FFE9E7E8
:102D40008886001A9886001A884F0010954D00104A
:102D5000A886001AB886001A944D0010E07F001A69
:102D60009086001A9486001AA086001AB086001A6F
:102D7000C086001AC486001A8E4D001010B503F0EC
:102D800033FF304B1A68304B1B689A4245D02E4CAB
:102D9000236803EB83039A002C48104403F037FFA9
:102DA0000121002003F0F8FE23680133254A126850
:102DB00093423AD0244C2368013303EB83039A00F7
:102DC0002248104403F023FF0221002003F0E4FE18
:102DD000236802331B4A126893422AD01A4C236894
:102DE00003EB830398002830184B184403F00FFFBF
:102DF0000321002003F0D0FE23680333114A126838
:102E000093421AD0104B1B6803EB830398003C30AD
:102E10000E4B184403F0FBFE10BD0021084603F0E2
:102E2000BBFE0B4803F0F3FEB1E7094803F0EFFEE9
:102E3000C0E7074803F0EBFED0E7054803F0E7FEE4
:102E4000E0E700BFC44C0010C04C0010344C001030
:102E50008486001A10B582B000240094ADF80440B6
:102E600003F0C2FE2146204603F096FE214803F0FF
:102E7000CEFE0121204603F08FFE1F4803F0C7FE5F
:102E80000221204603F088FE1C4803F0C0FE032107
:102E9000204603F081FE1A4803F0B9FE204600E008
:102EA0000130172817DC00EB80039A00154B134400
:102EB0001B7A022BF4D11146124A0A44D3681169D5
:102EC000802242FA01F102AA134413F8082C0A43A3
:102ED00003F8082CE4E70024052C09D802AB2344AE
:102EE00013F8081C204600F042FB0134E4B2F3E77B
:102EF00002B010BDEC85001AFC85001A1086001A7D
:102F00002486001A9C4D001008B503F06DFE0021C8
:102F1000084603F041FE0C4803F079FE0121002031
:102F200003F03AFE094803F072FE0221002003F08C
:102F300033FE074803F06BFE0321002003F02CFE54
:102F4000044803F064FE08BD3086001A4486001A67
:102F50005C86001A7086001A10B582B000240094B6
:102F6000ADF8044003F040FE2146204603F014FE75
:102F7000214803F04CFE0121204603F00DFE1F48BE
:102F800003F045FE0221204603F006FE1C4803F034
:102F90003EFE0321204603F0FFFD1A4803F037FEF2
:102FA000204600E00130172817DC00EB80039A0070
:102FB000154B13441B7A002BF4D11146124A0A44D4
:102FC000D3681169802242FA01F102AA134413F86E
:102FD000082C0A4303F8082CE4E70024052C09D840
:102FE00002AB234413F8081C204600F0C0FA013459
:102FF000E4B2F3E702B010BDEC85001A2C87001A8A
:103000001086001A2486001A9C4D001008B503F0A3
:10301000EBFD0021084603F0BFFD054803F0F7FD76
:103020000121002003F0B8FD024803F0F0FD08BDC7
:10303000CC86001AD886001A08B50321092003F0AF
:10304000ABFD024803F0E3FD08BD00BFF486001AA3
:1030500008B503210A2003F09FFD024803F0D7FDC5
:1030600008BD00BFEC86001A10B5194C2368013367
:1030700023600321084603F08FFD23681D2B0BDC22
:10308000132B19DC092B1FDD312003F0F3FC104A50
:1030900013680A3B136005E0332003F0EBFC236860
:1030A0001E3B23600A4B18683030C0B203F0E2FCCC
:1030B000084803F0ACFD10BD322003F0DBFC044AED
:1030C0001368143B1360EDE7034803F0A0FDE9E744
:1030D000804F0010C086001AE07F001A08B503F088
:1030E00083FD0021084603F057FD054803F08FFDDE
:1030F0000121002003F050FD024803F088FD08BDC7
:103100002087001AE07F001A08B50321012003F090
:1031100043FD024803F07BFD08BD00BFF886001A9E
:1031200008B50321012003F037FD024803F06FFDCD
:1031300008BD00BF0C87001A08B503F055FD00213B
:10314000084603F029FD024803F061FD08BD00BFF9
:10315000C087001A70B5784E784B03CB3060716031
:10316000774C0FCC7061B161F26133622388B38414
:103170004FF0804000F04CF930B14FF0005000F0BB
:1031800047F9002800F0A2804FF0804000F040F99D
:1031900030B94FF0005000F03BF9002840F0A0801B
:1031A000684C204604F03BFD01460219664B186846
:1031B000085199889B7991809371644D644C0FCC30
:1031C00028606960AA60EB6023882B824FF08050F2
:1031D00000F01EF9002800F08E802C46284604F0EE
:1031E0001EFD42195B4B19889B78015393705A4D11
:1031F0005A4C0FCC28606960AA60EB6023882B8250
:103200004FF0006000F004F900287FD02C462846DB
:1032100004F005FD42194F4B19889B7801539370B8
:103220004F4D504C0FCC28606960AA60EB6023883A
:103230002B824FF0806000F0EBF8002871D02C4614
:10324000284604F0ECFC4219424B19889B78015344
:103250009370454C454B1B882380A382444D012627
:103260002E60444B1E6003F0BFFC0021084603F0B3
:1032700093FC2B6803EB83039800643C204403F029
:10328000C6FC3146002003F087FC2B68334403EB77
:1032900083039800204403F0BAFC0221002003F0CD
:1032A0007BFC2B6803EB830398002830204403F059
:1032B000AEFC0321002003F06FFC2B6803EB8303BB
:1032C00098003C30204403F0A2FC70BD304604F06E
:1032D000A6FC8219284B19889B78815393706CE760
:1032E000184C204604F09BFC0219244B19889B784B
:1032F0000153937061E7154C204604F090FC0219CD
:103300001F4B19889B780153937070E7124C20462D
:1033100004F085FC02191A4B19889B7801539370AD
:103320007EE70F4C204604F07AFC0219144B1988F2
:103330009B78015393708CE7344C00104087001A3F
:103340004887001A484C00106487001A5C4C001033
:103350006C87001A8087001A704C00108887001A4A
:10336000844C00109C87001A984C0010E07F001AD3
:10337000C04C0010C44C00105C87001A6087001A13
:103380008487001A10B54FF4E131032003F096F85A
:103390004FF41651012003F091F8FFF763FA002073
:1033A00003F0F4F800F0F9F8FDF764FAFDF73CF8E3
:1033B000FEF798FB0022172A14DC0B4B83FB021349
:1033C000A3EBE27390001044840008492144CB60D1
:1033D000A3EB830358001044086100234B720B7267
:1033E0000132E8E7002010BDABAAAA2A9C4D0010CC
:1033F00029B1064A13680343136000207047034A4B
:10340000136823EA00031360F7E700BF8C4F001036
:10341000034B1B68184201D0012070470020704701
:103420008C4F001000B585B0FF238DF80430F023D9
:103430008DF8053001280CD002280ED000234FF45F
:103440007A7201A90748006800F092FC05B05DF8A7
:1034500004FB01238DF80630F0E702238DF80630D7
:10346000ECE700BF984D001008B540F2B110FCF732
:10347000ABFFC0B2012802D002280BD008BD012149
:103480004FF08040FFF7B4FF00214FF00050FFF7EE
:10349000AFFFF3E700214FF08040FFF7A9FF0121C4
:1034A0004FF00050FFF7A4FFE8E708B54FF4D870DD
:1034B000FCF78AFFC0B26438C0B2142805D80121D5
:1034C0004FF00040FFF794FF08BD00214FF000408F
:1034D000FFF78EFFF3E7FFFF10B584B004460A48FC
:1034E00004F052FBFF238DF80430EE238DF80530F5
:1034F0008DF8064000234FF47A7201A90348006852
:1035000000F036FC04B010BDEC87001A984D001096
:1035100008B501211E2003F097F801211E2003F0B9
:1035200069F9642001F020FA00211E2003F062F9FD
:1035300008BD08B501211B2003F05CF94FF4FA70B7
:1035400001F012FA01211C2003F054F94FF4FA7033
:1035500001F00AFA00211B2003F04CF94FF4FA7035
:1035600001F002FA00211C2003F044F908BD00B567
:1035700083B08DF804008DF8051000210F2003F0B2
:1035800039F9022201A9002003F028F801210F20B7
:1035900003F030F903B05DF804FB08B501210F20FA
:1035A00003F052F801210F2003F024F900210F202D
:1035B000FFF7DDFF07210B20FFF7D9FF0F210A20BE
:1035C000FFF7D5FF00210920FFF7D1FF01210C20D3
:1035D000FFF7CDFF01210F20FFF7C9FFC820002111
:1035E00003F0E6F900210F20FFF7C1FF08BD10B579
:1035F0000024062C05DC0021E0B2FFF7B8FF0134FF
:10360000F7E710BD70B5012600E00136062E0EDC8E
:1036100000248025062CF8DC6D10E9B2F0B2FFF72B
:10362000A6FF6420002103F0C3F90134F2E7C820AB
:10363000002103F0BDF9FFF7DAFF18210320FFF79F
:1036400096FF18210420FFF792FFC820002103F005
:10365000AFF9FFF7CCFF3C210220FFF788FF3C21A8
:103660000520FFF784FF24210320FFF780FF24219A
:103670000420FFF77CFFC820002103F099F9FFF731
:10368000B6FF7E210120FFF772FF7E210620FFF7A3
:103690006EFF42210220FFF76AFF42210520FFF75B
:1036A00066FF42210320FFF762FF42210420FFF75B
:1036B0005EFFC820002103F07BF9FFF798FF3C2153
:1036C0000220FFF754FF3C210520FFF750FF242183
:1036D0000320FFF74CFF24210420FFF748FFC820F8
:1036E000002103F065F9FFF782FF18210320FFF79F
:1036F0003EFF18210420FFF73AFFC820002103F005
:1037000057F9FFF774FF70BD7047FFFF10B572B631
:10371000194B1A4A1A600433194A1A60002305E04B
:10372000184A4FF0FF3142F823100133072BF7D925
:1037300062B6154B07E003F10C049A6859681868E3
:10374000FCF723FD2346114A9342F4D306E01C46BE
:10375000596854F8080BFCF727FD23460C4A93429E
:10376000F5D302F057FE03F0B3FDFFF7CDFFFDF7F1
:10377000DFFC30BFFDE700BF003105400010DF1067
:10378000FFF7DF0180E200E01401001A5001001A87
:103790007801001A70477047092303604FF0FF302B
:1037A0007047582303604FF0FF307047022904D957
:1037B000092303604FF0FF30704701207047582302
:1037C00003604FF0FF30704702291FD82DE9F04108
:1037D0001D46174606460024AC4211D201F0A1FF57
:1037E000B0F1FF3FF8D004F1010838550D2803D09F
:1037F0000A2801D04446EFE701F093FF404603E07A
:10380000132333604FF0FF30BDE8F08113230360D2
:103810004FF0FF30704702290CD870B51D46164690
:103820000024AC4204D2305D01F076FF0134F8E7A9
:10383000284670BD132303604FF0FF307047FFFF31
:10384000054B1B6823B1044B18680144196070478D
:10385000014B024A1A60F6E7FC000010F84F001016
:10386000124A12F0070F07D0D11D21F00701C1F550
:10387000804313440A4601E04FF480430C48026041
:10388000002141601344083B23F00703094803600B
:1038900059601960991A51601360074B1960074B02
:1038A0001960074B4FF000421A6070470401001086
:1038B00010410010000100100C41001008410010E0
:1038C0000441001010B4134A00E01A461368834202
:1038D000FBD35168541884420AD041684418A3426B
:1038E0000BD00360904200D010605DF8044B70472D
:1038F0004068014451601046EFE7074C2468A3423A
:1039000006D05B681944416013681B680360E9E7EF
:103910000460E7E7104100100001001070B5044694
:1039200000F00AFF3F4B1B68BBB13F4B1B681C42BA
:1039300016D134B3083414F0070F22D024F0070452
:10394000083404F00703E3B14FF0A00383F31188B8
:10395000BFF36F8FBFF34F8FFEE7FFF781FFE4E701
:1039600000F084FF002600F08BFC16F0070F57D004
:103970004FF0A00383F31188BFF36F8FBFF34F8F16
:10398000FEE734B1294B1B68A34206D3284B1D68C0
:1039900009E000F06BFF0026E5E700F067FF002676
:1039A000E1E72B4615466A68A24202D22A68002A3D
:1039B000F7D11C4A1268AA4214D01E6808362A6839
:1039C0001A606B681B1B102B14D9281910F0070FF5
:1039D0000CD04FF0A00383F31188BFF36F8FBFF3B8
:1039E0004F8FFEE700F042FF0026BCE743606C60AB
:1039F000FFF768FF6A680D490B689B1A0B600D4959
:103A000009688B4201D20B490B60074B1B681343BB
:103A10006B6000232B6000F029FF002EA5D1A2E7E8
:103A2000304670BD00010010044100100841001034
:103A3000104100100C41001080B338B50446A0F1CD
:103A4000080550F8042C164909680A4208D14FF0BD
:103A5000A00383F31188BFF36F8FBFF34F8FFEE78F
:103A600050F8080C40B14FF0A00383F31188BFF366
:103A70006F8FBFF34F8FFEE722EA010244F8042C58
:103A800000F05AFE54F8041C064A13680B441360F5
:103A90002846FFF717FF00F0E9FE38BD704700BF6A
:103AA000044100100841001010B5044601F0E2FB8B
:103AB000A26BE36B9A4204D0002401F0FDFB204688
:103AC00010BD0124F9E710B5044601F0D3FBA36B48
:103AD00023B9012401F0F0FB204610BD0024F9E7D2
:103AE00070B504461646856B026C5AB903681BB163
:103AF00000200135A56370BD406801F09FF80023E8
:103B00006360F6E76EB9806803F009FC226CA36875
:103B10001344A3606268934219D32368A360002012
:103B2000E7E7C06803F0FBFB226C5242E3681344F2
:103B3000E36021688B4202D263681A44E260022E7D
:103B400001D00020D5E725B1013D0020D1E70020BC
:103B5000CFE70020CDE7026C72B110B5C368134403
:103B6000C3604468A34201D30368C3600C46C168C4
:103B7000204603F0D4FB10BD704738B5054601F070
:103B800079FB95F8454064B203E001F041F8013C4F
:103B900064B2002C08DD6B6A33B105F1240000F03B
:103BA000A3FF0028F3D0F0E7FF2385F8453001F0AC
:103BB00083FB01F05FFB95F8444064B203E001F041
:103BC00027F8013C64B2002C08DD2B6933B105F104
:103BD000100000F089FF0028F3D0F0E7FF2385F8FC
:103BE000443001F069FB38BD38B5E0B104460D46FC
:103BF00001F040FB2168E26B236C03FB0210606064
:103C00000020A063A160013A02FB0313E360FF23DD
:103C100084F8443084F84530EDB9236963B901F084
:103C20004BFB012038BD4FF0A00383F31188BFF395
:103C30006F8FBFF34F8FFEE704F1100000F054FFC9
:103C40000028ECD0084B4FF080521A60BFF34F8F22
:103C5000BFF36F8FE3E704F1100000F09CFA04F16A
:103C6000240000F098FADAE704ED00E038B51D46CC
:103C7000049C0B4649B92460E0632364012120467B
:103C8000FFF7B2FF84F84C5038BD2260F4E740B92A
:103C90004FF0A00383F31188BFF36F8FBFF34F8FF3
:103CA000FEE710B584B0044653B192B189B94FF024
:103CB000A00383F31188BFF36F8FBFF34F8FFEE72D
:103CC0004FF0A00383F31188BFF36F8FBFF34F8FC3
:103CD000FEE76AB1502003900398502813D04FF0AC
:103CE000A00383F31188BFF36F8FBFF34F8FFEE7FD
:103CF0000029EFD04FF0A00383F31188BFF36F8F3B
:103D0000BFF34F8FFEE720461C46012384F8463060
:103D100000949DF81830FFF7A9FF204604B010BDAD
:103D200040B94FF0A00383F31188BFF36F8FBFF347
:103D30004F8FFEE7F0B583B00646B1B101FB00F04E
:103D400017460C465030FFF7E9FD054650B10023F9
:103D500080F8463000903B4600F150022146304644
:103D6000FFF784FF284603B0F0BD0020E8E7FFFF1F
:103D7000F0B585B0019278B10446B1B1022B20D1E3
:103D8000E26B012A1DD04FF0A00383F31188BFF32B
:103D90006F8FBFF34F8FFEE74FF0A00383F31188BF
:103DA000BFF36F8FBFF34F8FFEE7026C002AE5D0A1
:103DB0004FF0A00383F31188BFF36F8FBFF34F8FD2
:103DC000FEE71E460F4600F029FF50B9019B53B194
:103DD0004FF0A00383F31188BFF36F8FBFF34F8FB2
:103DE000FEE700253BE0002539E032463946204613
:103DF000FFF776FE636A6BB938B13C4B4FF08052E7
:103E00001A60BFF34F8FBFF36F8F01F055FA012097
:103E100005B0F0BD04F1240000F066FE0028F4D0E7
:103E2000324B4FF080521A60BFF34F8FBFF36F8F4A
:103E3000EBE701F041FA0020EAE702A800F09AFE61
:103E4000012519E0002384F8443021E0002384F8A0
:103E5000453023E02046FFF790FE00F007FD01F01B
:103E600009FAA26BE36B9A42BFD3022EBDD0019B2D
:103E7000002BDED0002DE0D001F01EFA00F05CFC3B
:103E800001F0F8F994F844305BB2B3F1FF3FD9D0B8
:103E900094F845305BB2B3F1FF3FD7D001F00CFA94
:103EA00001A902A800F072FEC8B92046FFF7FCFD88
:103EB0000028CFD0019904F1100000F0E1FD204668
:103EC000FFF75BFE00F0D2FC0028C8D1074B4FF093
:103ED00080521A60BFF34F8FBFF36F8FBFE720464A
:103EE000FFF74BFE00F0C2FC002091E704ED00E07C
:103EF0002DE9F84378B10446B1B1022B20D1E06B33
:103F000001281DD04FF0A00383F31188BFF36F8FFA
:103F1000BFF34F8FFEE74FF0A00383F31188BFF389
:103F20006F8FBFF34F8FFEE7006C0028E5D04FF096
:103F3000A00383F31188BFF36F8FBFF34F8FFEE7AA
:103F40001F469046894601F0BFFAEFF311864FF005
:103F5000A00383F31188BFF36F8FBFF34F8FA26B62
:103F6000E36B9A4206D3022F04D0002086F3118817
:103F7000BDE8F88394F845506DB23A46494620466C
:103F8000FFF7AEFDB5F1FF3F05D06B1C5BB284F8C7
:103F900045300120EAE7636A0BB90120E6E704F146
:103FA000240000F0A1FD30B1B8F1000F05D00120D0
:103FB000C8F80000DAE70120D8E70120D6E7FFFFC4
:103FC000F0B585B0019280B10446B9B10F4600F05A
:103FD00025FEF8B9019BFBB14FF0A00383F31188D4
:103FE000BFF36F8FBFF34F8FFEE74FF0A00383F354
:103FF0001188BFF36F8FBFF34F8FFEE7036C002B69
:10400000E4D04FF0A00383F31188BFF36F8FBFF3A9
:104010004F8FFEE700263EE000263CE03946204672
:10402000FFF799FD013DA563236923B901F044F928
:10403000012005B0F0BD04F1100000F055FD00288E
:10404000F4D0354B4FF080521A60BFF34F8FBFF35F
:104050006F8FEBE701F030F90020EAE702A800F0EB
:1040600089FD012621E0002384F8443029E0002363
:1040700084F845302BE02046FFF77FFD00F0F6FB8B
:1040800009E02046FFF779FD00F0F0FB2046FFF73E
:104090001AFD00283DD101F0EDF8A56B002DBDD132
:1040A000019B002BD6D0002ED8D001F005F900F0EE
:1040B00043FB01F0DFF894F844305BB2B3F1FF3F0B
:1040C000D1D094F845305BB2B3F1FF3FCFD001F0CF
:1040D000F3F801A902A800F059FD0028D1D120462B
:1040E000FFF7F1FC0028C6D0019904F1240000F08C
:1040F000C7FC2046FFF741FD00F0B8FB0028CAD1FD
:10410000054B4FF080521A60BFF34F8FBFF36F8F94
:10411000C1E700208DE700BF04ED00E00023072B7E
:104120000CD8074A52F833200AB10133F7E7044AA2
:1041300042F8331002EBC30358607047704700BF6A
:10414000A44F001070B504460D46164601F092F8D3
:1041500094F844305BB2B3F1FF3F0DD094F8453092
:104160005BB2B3F1FF3F0BD001F0A6F8A36B5BB1DC
:104170002046FFF702FD70BD002384F84430EDE7D0
:10418000002384F84530EFE73246294604F1240045
:1041900000F08EFCECE700F1080343604FF0FF32C3
:1041A0008260C360036100230360704700230361E2
:1041B000704743684B609A688A60516099600861F3
:1041C000036801330360704730B40D68B5F1FF3FF9
:1041D00002D000F1080202E0026904E01A465368C6
:1041E0001C68AC42FAD953684B6099608A60516090
:1041F000086103680133036030BC7047036941689C
:1042000082688A60416851605A68824206D0002202
:1042100002611A68013A1A601868704782685A6029
:10422000F5E7FFFF034B0360034B0B606423136050
:10423000704700BFE848001018410010034B0360AE
:10424000034B0B604FF4C87313607047484900106C
:10425000A842001010B582B00C46019000230093D4
:1042600001F008F801992246044803F0F3FB009B93
:10427000002BFCD001F020F802B010BD7088001AAD
:1042800008B5044803F080FC03492C20FFF7E2FF47
:1042900008BD00BFFC87001A2088001A08B5044832
:1042A00003F0D8FB03495020FFF7D4FF08BD00BF3F
:1042B0004088001A2088001A084B1B681B6823B925
:1042C000074B4FF0FF321A607047044B1B68DB68E6
:1042D000DB685A68024B1A60704700BFAC49001097
:1042E000804A00102DE9F04781460D4617469A4650
:1042F000089EDDF824800A9C9200A521206B03F023
:104300001CF8236B07F18042013A03EB820727F088
:104310000707676400230F2B06D8EA5CE11881F8D1
:1043200034200AB10133F6E7002384F84330062E27
:1043300000D90626E662266500256565201DFFF783
:1043400035FF04F11800FFF731FF2461C6F10706BD
:10435000A6616462A56584F85C50524649463846B9
:1043600000F05AFF2060B8F1000F01D0C8F80040FB
:10437000BDE8F08738B50024062C08D804EB840289
:1043800093000E481844FFF706FF0134F4E70C4D84
:104390002846FFF700FF0B4C2046FFF7FCFE0A48BB
:1043A000FFF7F9FE0948FFF7F6FE0948FFF7F3FEAD
:1043B000084B1D60084B1C6038BD00BFB44900109D
:1043C000584A00106C4A0010884A0010B44A001085
:1043D000A04A0010AC490010B049001010B50446C6
:1043E00000F048FF214A136801331360204B1B681B
:1043F0005BB1204B1B686BB91D4B1B68DA6AE36A23
:104400009A4207D81A4B1C6004E0194B1C601368D1
:10441000012B27D0184A136801331360A364E36AA1
:1044200001229A401549086802430A6003EB83039E
:104430009A00211D12481044FFF7BBFE00F03CFF1C
:104440000C4B1B686BB10A4B1B68DA6AE36A9A4231
:1044500007D20C4B4FF080521A60BFF34F8FBFF35F
:104460006F8F10BDFFF786FFD4E700BF404A0010F2
:10447000A84900109C4A0010504A0010544A0010ED
:10448000B449001004ED00E010B5044690F85D302A
:1044900063B1012B11D0022B0ED04FF0A00383F398
:1044A0001188BFF36F8FBFF34F8FFEE7006BFFF7ED
:1044B000C3FA2046FFF7C0FA10BDFFF7BDFAFBE7CD
:1044C0000F4B1B68D3B110B500F0D4FE0D4BDB6869
:1044D000DC68201DFFF792FE0B4A1368013B136056
:1044E000074A1368013B136000F0E6FE2046FFF721
:1044F000CBFF034B1B68002BE6D110BD704700BFFC
:10450000444A0010B44A0010404A001008B5FFF7B2
:10451000D7FF064B1B68012BF9D9054B4FF0805292
:104520001A60BFF34F8FBFF36F8FF0E7B4490010ED
:1045300004ED00E070B504460E461D4B1D681D4B92
:1045400018680430FFF75AFE50B91A4B1B68DA6A34
:10455000012303FA02F218490B6823EA02030B60F5
:10456000B4F1FF3F0DD02C44124B1B685C60A54298
:1045700010D9124B18680F4B19680431FFF724FE4D
:1045800070BD002EEFD00B4B196804310C48FFF7BB
:1045900010FEF5E70B4B1868064B19680431FFF75E
:1045A00013FE094B1B68A342EAD9074B1C60E7E7DF
:1045B000C84A0010A8490010544A0010B049001021
:1045C000A04A0010AC490010804A001070B586B0B7
:1045D0000B9D0C9C75B1B4B160260496049E602EB0
:1045E0001AD04FF0A00383F31188BFF36F8FBFF38E
:1045F0004F8FFEE74FF0A00383F31188BFF36F8F57
:10460000BFF34F8FFEE74FF0A00383F31188BFF392
:104610006F8FBFF34F8FFEE72563022584F85D504F
:1046200000250395029405AD01950A9D0095FFF7BD
:1046300059FE2046FFF7D2FE059806B070BD2DE961
:10464000F04385B007468846154699469000FFF727
:1046500065F9F8B106466020FFF760F90446A8B195
:104660000663E4B1002384F85D30039302940D9B4C
:1046700001930C9B00934B462A4641463846FFF770
:1046800031FE2046FFF7AAFE012005E03046FFF785
:10469000D3F9E6E74FF0FF3005B0BDE8F0834FF007
:1046A000FF30F9E710B588B000240594069407AAF6
:1046B00006A905A8FFF7B6FD059B0293069B01938B
:1046C00000942346079A17491748FFF77FFF40B128
:1046D00000F09AFB012806D0B0F1FF3F18D008B0D7
:1046E00010BD0020F6E74FF0A00383F31188BFF35D
:1046F0006F8FBFF34F8F0D4B4FF0FF321A600C4B93
:1047000001221A600B4B00221A6000F055FEE6E70A
:104710004FF0A00383F31188BFF36F8FBFF34F8F68
:10472000FEE700BFB088001A0D45001A804A00104D
:104730009C4A0010C84A0010024A136801331360F3
:10474000704700BF4C4A0010014B1868704700BF0B
:10475000C84A0010F8B53A4B1B68002B64D1394B9E
:104760001D6801351D60C5B9374B1B681B6843B117
:104770004FF0A00383F31188BFF36F8FBFF34F8F08
:10478000FEE7314A1168314B186810601960304AF1
:10479000136801331360FFF78FFD2E4B1B68AB428C
:1047A00038D900242C4B1B68DB6A03EB83039A0087
:1047B0002A4B9B58012B3CD901243AE00124224B7F
:1047C0001B681B6843B3204B1B68DB68DE6873689B
:1047D0009D4226D3371D3846FFF710FDB36A1BB143
:1047E00006F11800FFF70AFDF36A01229A401C49FE
:1047F000086802430A6003EB83039A0039461748AE
:104800001044FFF7D6FCF26A134B1B68DB6A9A422E
:10481000D4D2D4E70024D2E70E4B4FF0FF321A6017
:10482000C0E70C4A1360BDE70E4A136801331360FA
:1048300000240D4B1B6803B101242046F8BD00BFC6
:104840004C4A0010C84A0010AC490010B049001092
:10485000844A0010804A0010A8490010B449001092
:10486000544A0010484A0010CC4A001038B5354B65
:104870001B6843B94FF0A00383F31188BFF36F8F18
:10488000BFF34F8FFEE700F0F5FC2E4B1A68013A9C
:104890001A601B68002B4DD12B4B1B680BB90024F1
:1048A00049E00024294B1B681BB3284BDB68DC68FC
:1048B00004F11800FFF7A2FC251D2846FFF79EFC17
:1048C000E36A01229A402249086802430A6003EB26
:1048D00083039A0029461F481044FFF76AFCE26AE6
:1048E0001D4B1B68DB6A9A42DCD31C4B01221A6009
:1048F000D8E70CB1FFF7E0FC194B1C6874B9174BF3
:104900001B68E3B1174B4FF080521A60BFF34F8F13
:10491000BFF36F8F01240EE0013C07D0FFF71AFFB1
:104920000028F9D00D4B01221A60F5E70C4B00224C
:104930001A60E4E7002400F0BFFC204638BD0024E4
:10494000F9E700BF4C4A0010404A0010884A0010A6
:10495000544A0010B4490010A8490010CC4A001075
:10496000484A001004ED00E010B5A8B104460F4B12
:104970001B6843B14FF0A00383F31188BFF36F8F1F
:10498000BFF34F8FFEE7FFF7D7FE00212046FFF76A
:10499000D1FDFFF76BFF38B9054B4FF080521A601D
:1049A000BFF34F8FBFF36F8F10BD00BF4C4A001095
:1049B00004ED00E02D4B1B681BB12D4B01221A604A
:1049C000704710B52A4B00221A602A4B1B681B6BDC
:1049D0001A68B2F1A53F03D15A68B2F1A53F1BD0C6
:1049E000244B186819683431FFF758FC224B1B68B8
:1049F000B3FA83F3DBB2C3F11F0303EB83018A0035
:104A00001E498A588AB94FF0A00383F31188BFF377
:104A10006F8FBFF34F8FFEE79A68B2F1A53FDFD1EA
:104A2000DB68B3F1A53FDBD1E0E714489A00D41866
:104A3000A10001444C6864684C601A44910008313C
:104A40000844844209D003EB83039A000B4B1344C0
:104A50005B68DA68074B1A6010BD606803EB83027D
:104A60009100064A0A445060EDE700BF4C4A00102E
:104A7000CC4A0010A8490010544A0010B449001054
:104A800058B110B50C46094B19681831FFF79CFB5B
:104A900001212046FFF74EFD10BD4FF0A00383F328
:104AA0001188BFF36F8FBFF34F8FFEE7A849001047
:104AB00038B570B10C4615460A4A11681831FFF72F
:104AC00078FB0DB14FF0FF3429462046FFF732FD49
:104AD00038BD4FF0A00383F31188BFF36F8FBFF38E
:104AE0004F8FFEE7A849001038B5C368DC6824B3CF
:104AF00004F118052846FFF781FB184B1B682BBBF8
:104B0000251D2846FFF77AFBE36A01229A401449E3
:104B1000086802430A6003EB83039A0029461148A0
:104B20001044FFF746FBE26A0F4B1B68DB6A9A42B0
:104B300011D901200D4B18600EE04FF0A00383F354
:104B40001188BFF36F8FBFF34F8FFEE729460848E8
:104B5000FFF72FFBE7E7002038BD00BF4C4A0010ED
:104B6000544A0010B4490010A8490010CC4A001063
:104B7000884A0010034B1B680360034B1B684360AB
:104B8000704700BF844A0010C84A0010F8B5C8B189
:104B9000054601B30C4600F06DFB1B4B19686B68B2
:104BA000C81A2268B2F1FF3F26D02F68174E366828
:104BB000B74201D08B4224D9824215D8002323600A
:104BC00001241AE04FF0A00383F31188BFF36F8F25
:104BD000BFF34F8FFEE74FF0A00383F31188BFF3BD
:104BE0006F8FBFF34F8FFEE75B1A13442360284695
:104BF000FFF7C0FF002400E0002400F05DFB20462A
:104C0000F8BD0124F9E700BFC84A0010844A00102B
:104C1000014B01221A607047CC4A0010054B1B68FB
:104C200033B1054B1B680BB1002070470220704761
:104C3000012070479C4A00104C4A001000284CD0BC
:104C400038B50446274A1268824208D04FF0A003C4
:104C500083F31188BFF36F8FBFF34F8FFEE7426D71
:104C600042B94FF0A00383F31188BFF36F8FBFF3F6
:104C70004F8FFEE7013A4265C06A216D88422ED00F
:104C80000AB1002038BD251D2846FFF7B7FA70B9D4
:104C9000E26A02EB82018B001349CB583BB9012336
:104CA00003FA02F211490B6823EA02030B60236D39
:104CB000E362C3F10702A261012404FA03F20B4983
:104CC000086802430A6003EB83039A0029460648FA
:104CD0001044FFF76EFA2046D4E70020704700200A
:104CE000D0E700BFA8490010B4490010544A001092
:104CF000064B1A681368B3FA83F35B09036013B9B0
:104D0000D368186870470020704700BFD04A001071
:104D100008B54160006191420CD8D21A83699A4269
:104D200001D3012008BD011D094B1868FFF74CFA9B
:104D30000020F7E79A4201D2994206D2011D054BA5
:104D40001868FFF741FA0020ECE70120EAE700BF0E
:104D5000D44A0010D04A001030B583B000F08AFA6F
:104D6000114B1B681BB100F0A7FA03B030BD0F4D0B
:104D70002846FFF710FA0E4C2046FFF70CFA0D4BB1
:104D80001D600D4B1C60002300930C4B0C4A10213E
:104D90000A20FEF77CFF044B18600028E3D0094985
:104DA000FFF7BCF9DFE700BFF44B0010784B0010B1
:104DB0008C4B0010D04A0010D44A0010A44B0010B5
:104DC000D84A0010B888001A2DE9F041079C41B973
:104DD0004FF0A00383F31188BFF36F8FBFF34F8FA2
:104DE000FEE70F4674B11D4616468046FFF7B4FF36
:104DF000C4F80080A761E6612562069B6362201DFE
:104E0000FFF7D4F9BDE8F08110B588B0FFF7A4FF33
:104E1000124B1B68CBB100240594069407AA06A97F
:104E200005A8FFF70BFA059B0293069B0193042349
:104E300000932346079A0A490A48FFF7C7FB0A4B23
:104E4000186010B1012008B010BD4FF0A00383F32B
:104E50001188BFF36F8FBFF34F8FFEE7F44B001045
:104E6000C088001A8551001AF84B00102DE9F04156
:104E700082B005460E46174698463020FEF74EFD96
:104E8000044658B10190089B009343463A46314688
:104E90002846FFF799FF002384F82C30204602B003
:104EA000BDE8F081C0B130B585B015460446174A5B
:104EB000106840B31A4600910195029405291CDC44
:104EC000FFF7ACFE022810D000231A4669460F48AF
:104ED0000068FEF74DFF14E04FF0A00383F3118844
:104EE000BFF36F8FBFF34F8FFEE70023089A694629
:104EF00006480068FEF73CFF03E000236946FEF722
:104F0000F7FF05B030BD0020FBE700BFF44B0010F9
:104F100070B582B01A4B1B681A6852B3DB681E6802
:104F2000DC68251D2846FFF769F9636A2046984723
:104F3000E369012BEED1A36933449E4207D263603B
:104F4000246129460E4B1868FFF73EF9E2E700217D
:104F500000910B4632462046FFF7A4FF0028D9D126
:104F60004FF0A00383F31188BFF36F8FBFF34F8F10
:104F7000FEE7044A106802490860136002B070BD81
:104F8000D04A0010D44A001038B50546FFF7DCFBC4
:104F90000446074B1B68834205D800232B60044B53
:104FA0001C60204638BDFFF7B3FF01232B60F6E7F6
:104FB000A04B001070B582B005460E46144B1B681E
:104FC000DB68DC68201DFFF719F9E369012B04D0C9
:104FD000636A2046984702B070BDA1692B463246ED
:104FE00029442046FFF794FE0028F1D000210091CB
:104FF0000B462A462046FFF755FF0028E8D14FF020
:10500000A00383F31188BFF36F8FBFF34F8FFEE7C9
:10501000D04A001070B582B006460C46FFF78CFBF4
:1050200001A8FFF7B1FF019B1BBB05460CB9B042BD
:1050300018D22CB1114B1B681C68B4FA84F46409B3
:105040002246711B0E4B1868FFF77CF8FFF70EFC29
:1050500088B90C4B4FF080521A60BFF34F8FBFF3EB
:105060006F8F08E0FFF702FC29463046FFF7A2FFEA
:1050700001E0FFF7FBFB02B070BD00BFD44A001097
:10508000F44B001004ED00E030B589B006E007995C
:105090000698059B9847049B002B0BDA002204A975
:1050A000374B1868FEF78CFF002866D0049B002B56
:1050B000F1DAECE7069C636913B1201DFFF79EF857
:1050C00003A8FFF761FF049B092BE7D801A252F860
:1050D00023F000BFFD50001AFD50001AFD50001AC9
:1050E0009D50001A4551001A6B51001AFD50001ACC
:1050F000FD50001A9D50001A4551001A0599A569E6
:105100000B46024629442046FFF702FE0028C5D080
:10511000636A20469847E369012BBFD1A269002149
:1051200000910B46059802442046FFF7BBFE00287D
:10513000B4D14FF0A00383F31188BFF36F8FBFF397
:105140004F8FFEE70599A16131B103460246014444
:105150002046FFF7DDFDA1E74FF0A00383F31188A0
:10516000BFF36F8FBFF34F8FFEE794F82C30002B07
:1051700094D12046FEF760FC90E709B030BD00BF37
:10518000F44B001000B583B001A8FFF7B1FD019901
:10519000FFF740FFFFF778FFF6E7FFFF82B000233D
:1051A00001930D4B1B68B3F1FF3F08D04FF0A003F4
:1051B00083F31188BFF36F8FBFF34F8FFEE74FF07C
:1051C000A00383F31188BFF36F8FBFF34F8F019B51
:1051D000002BFCD002B070470C000010084800689B
:1051E000006880F308884FF0000080F3148862B6EE
:1051F00061B6BFF34F8FBFF36F8F00DF00BF0000BA
:1052000008ED00E0DFF80C00016841F47001016076
:105210007047000088ED00E04FF0807340F8043CD8
:1052200021F0010140F8081C054B40F80C3C40F807
:10523000202C6FF0020340F8243C4438704700BF34
:105240009D51001AFFFFFFFFFFFFFFFFFFFFFFFF62
:10525000074B19680868B0E8F04F80F30988BFF37E
:105260006F8F4FF0000080F311887047AFF300801C
:10527000A84900104FF0A00383F31188BFF36F8F8C
:10528000BFF34F8F0A4A136801331360012B00D01C
:105290007047084B1B6813F0FF0FF9D04FF0A003C5
:1052A00083F31188BFF36F8FBFF34F8FFEE700BF0B
:1052B0000C00001004ED00E0094B1B6843B94FF0EF
:1052C000A00383F31188BFF36F8FBFF34F8FFEE707
:1052D000013B034A13600BB983F31188704700BF89
:1052E0000C000010FFFFFFFFFFFFFFFFFFFFFFFFAE
:1052F000EFF30980BFF36F8F154B1A681EF0100F84
:1053000008BF20ED108A20E9F04F10602DE9090058
:105310004FF0A00080F31188BFF34F8FBFF36F8F62
:10532000FFF748FB4FF0000080F3118809BC1968B3
:105330000868B0E8F04F1EF0100F08BFB0EC108AFC
:1053400080F30988BFF36F8F704700BFAFF3008011
:10535000A849001008B54FF0A00383F31188BFF3EC
:105360006F8FBFF34F8FFFF7F5F918B1034B4FF075
:1053700080521A60002383F3118808BD04ED00E019
:10538000084A0023136008490B60084B1B68084952
:10539000A1FB03139B09013B06490B600723136024
:1053A000704700BF10E000E018E000E0E44F00109C
:1053B000D34D621014E000E03A4B1A683A4B9A421F
:1053C00029D0384B1A68394B9A422DD010B582B08B
:1053D000374B1A78D2B20192FF221A701B78DBB2D7
:1053E0008DF803309DF8033003F0A003314A1370A9
:1053F000314B07221A609DF8033013F0800F1CD048
:105400002D4A1368013B13609DF803305B00DBB24B
:105410008DF80330EFE74FF0A00383F31188BFF35B
:105420006F8FBFF34F8FFEE74FF0A00383F3118818
:10543000BFF36F8FBFF34F8FFEE71F4B1B68042B2B
:1054400008D04FF0A00383F31188BFF36F8FBFF331
:105450004F8FFEE71B0203F4E063174A1360019BC2
:10546000DBB2134A1370154B1A6842F460021A60DB
:105470001A6842F060421A60FFF782FF0024104B66
:105480001C60FFF7BFFE0F4A136843F040431360F0
:10549000FFF7A4FEFFF78EFAFFF780FE204602B06A
:1054A00010BD00BF00ED00E071C20F4170C20F419E
:1054B00000E400E0FC4B0010004C001020ED00E088
:1054C0000C00001034EF00E0EFF305830F2B0FD931
:1054D000104A9B5CDBB2104A12789A4208D94FF00E
:1054E000A00383F31188BFF36F8FBFF34F8FFEE7E5
:1054F0000A4B1B6803F4E063094A1268934208D917
:105500004FF0A00383F31188BFF36F8FBFF34F8F6A
:10551000FEE77047F0E300E0FC4B00100CED00E00C
:10552000004C001008B5054B0122C3F88021044B44
:105530001B6813B1024B1B68984708BD00E100E0EF
:10554000044C00100022052A19D870B40C4911F837
:10555000125001EB42014C780A4B05F5006653F8F6
:1055600026100120A040014343F8261003EB451309
:10557000002119550132052AE8D970BC70477047DF
:10558000D488001A00400F400023032B16D830B4F3
:105590000B4911F8132001EB43014D78094C02F53A
:1055A000006254F822100120A84021EA000144F8CA
:1055B00022100133032BEBD930BC7047704700BF7A
:1055C000CC88001A00400F400023082B16D830B4B6
:1055D0000B4911F8132001EB43014D78094C02F5FA
:1055E000006254F822100120A84021EA000144F88A
:1055F00022100133082BEBD930BC7047704700BF35
:10560000E088001A00400F4010B582B0084C69468F
:10561000204600F0D9F9074A6946204600F0F4F91F
:1056200000226946204600F008FA02B010BD00BF13
:1056300000300E40801A060010B50B4C204600F0DA
:105640008FFE636823F004036360236823F0FF0385
:1056500043F0070323600549204600F062FE6368BB
:1056600043F00203636010BD00500C40A0860100AF
:1056700008B5002000F0A0FE044B40F60802C3F875
:10568000842C0349002000F0A9FE08BD00600840FA
:1056900040420F0010B5074C204600F0B9F84FF417
:1056A000E131204600F0FEF80323E3600123E365C7
:1056B00010BD00BF00100C40034B5B6913F0200FBE
:1056C000FAD0014B1860704700100C40054B5B6925
:1056D00013F0010F03D0034B1868C0B270474FF0AE
:1056E000FF30704700100C4008B5FFF7D3FF0948A2
:1056F00000F048FDFFF768FFFFF786FFFFF79CFF0C
:10570000FFF7B6FFFFF71EFFFFF73EFF00F09CF923
:1057100008BD00BF00400F4008B5C0B2FFF7CCFF86
:1057200008BD08B5FFF7D2FF08BD08B5FFF7B2FF07
:1057300008BDFFFF00231C2B12D810B4094A02EB4E
:10574000830112F823404A78488802EB4412064944
:1057500041F8220001331C2BF0D95DF8044B70474F
:10576000704700BFFC88001A0060084010B5174A57
:10577000D2F8203123F4704343F41043C2F82031AF
:10578000D2F8243123F4704343F41043C2F8243197
:1057900001220F49062000F027FC00244CB10B4BDE
:1057A0005A6822F00C025A605A6842F003025A60AA
:1057B00010BD084800EB840101238A78497810F86D
:1057C000240000F06DFB0134E8E700BF0030044026
:1057D00000CB280CF888001A08B5FFF7ABFFFFF7DD
:1057E000C5FF08BD094B984209D003F58053984284
:1057F00007D0A3F58023984205D0002070470220EF
:105800007047032070470120704700BF00100C4014
:1058100030B583B00446FFF7E5FF01231A46194669
:105820000E4D35F8100000F081FB0723A360002324
:10583000E3656360E3602362E36463652365084BAB
:105840009C4206D00323E3601023A362019B03B0B4
:1058500030BD00232361A3690193F3E77889001A1F
:105860000020084038B505460C46FFF7BBFF0C4B3F
:1058700033F8100000F092FB2301B0FBF3F3D9B230
:10588000EA6842F08002EA602960C3F307226A6096
:10589000EA6822F08002EA60B0FBF3F0000938BD4C
:1058A0007089001A2DE9F04F83B001908846FFF708
:1058B00099FF324B33F8100000F070FB06464FF0B2
:1058C000FF3701244FF0000BA246D9462AE042429E
:1058D0004B1C17E00AB31746AB46A2469946013562
:1058E000AC421ED933093007A4FB000104FB0311AD
:1058F000621908FB02F2002301F0B2F902460B46DE
:105900000028E4DB9742EAD3002BE8D0190CE6D15B
:10591000022BDFD8002DDDD0E1E71746AB46A246CB
:10592000994601341FB10F2C01D80025D8E7B9F1F1
:10593000000F1ED0019A1146D36843F08003D36054
:105940005FFA89F31360C9F307235360D36823F028
:105950008003D3604FEA0A13DBB20BF00F0213434C
:105960008B6233090AFB03F3DA4409FB0AF9B3FB40
:10597000F9F9484603B0BDE8F08F00BF7089001AFE
:10598000034B984201D0032070470420704700BFAA
:1059900000400E4070B50D4614461E46FFF7F0FF5E
:1059A00000F0FCFA55B104FB06F404EB400064007F
:1059B000B0FBF4F0C0B20138C0B270BD04EB840398
:1059C00004EB4304F1E7FFFF38B505460C46FFF74B
:1059D000D7FF01231A46194600F0A8FA0021E96012
:1059E000084A2260217161710B232846FFF7D2FF1C
:1059F000000240F400132079400400F460201843B2
:105A0000286038BD801A060070B505460E46046849
:105A100024F46F2424F470640A600B79C3F10B033F
:105A2000DBB24979FFF7B6FF44EA002033795B0423
:105A300003F4602303432B6070BD08B50A710A6844
:105A4000FFF7E2FF08BDFFFF08B5692000F0A6FAE6
:105A5000014B186008BD00BFE44F0010F0B40B68A4
:105A600013F0800F02D023F040030B60074601259E
:105A70003AE04B6903FB02F3B3FBF5F31CE01C4671
:105A8000B0EB040C27D4674506D98D60771CCF6036
:105A90000A618C61CB6167460132B2F5807F1DDC03
:105AA0000C6814F0400FE4D0731C02FA03FC4B693D
:105AB00003FB0CF3B3FBF5F3DFF838C06345EBD918
:105AC000DFF834C0634509D814F0800FD7D1741CB7
:105AD00023FA04F4D4E7CCF1000CD4E70136032E0A
